:100000000C94E9070C9406080C9406080C94060856
:100010000C9406080C9406080C9406080C948809A5
:100020000C9406080C9406080C9455090C940608C8
:100030000C9406080C94410B0C9406080C940608CA
:100040000C9406080C9406080C9406080C940608F8
:100050000C94060825006D730D546869732063685D
:1000600061726163746572206973206E6F742076AB
:10007000616C69643A000D596F752068617665207E
:10008000636C656172656420746865206375626580
:100090002E000D596F752073657420746865206299
:1000A00072696768746E65737320746F3A000D54DB
:1000B00068652076616C756520796F7520656E7452
:1000C00065726564206973206F7574206F662062A5
:1000D0006F756E64732E000D596F752073657420F3
:1000E0007468652074696D6520746F3A000D5468FA
:1000F000652076616C756520796F7520656E746515
:10010000726564206973206F7574206F6620626F5A
:10011000756E64732E000D596F752077726F74655C
:100120003A000D4F7074696F6E733A0D2D42203C8A
:10013000696E74656765723E2050657263656E74A2
:10014000616765206F6620746F74616C20627269EC
:100150006768746E65737320796F752764206C69A6
:100160006B6520746865206375626520746F206418
:100170006973706C6179204D41583A2031303020DC
:100180004D494E3A2031342E2044656661756C74B9
:10019000203130302070657263656E740D2D432000
:1001A0005468697320636C6561727320746865209C
:1001B0006578697374696E6720776F726420626511
:1001C000696E6720646973706C617965642066721A
:1001D0006F6D206D656D6F72792E0D2D54203C6909
:1001E0006E74656765723E2054696D6520696E2086
:1001F0006D696C6C697365636F6E6473207468619C
:10020000742074686520637562652077696C6C2062
:10021000646973706C61792065616368206C6574D2
:10022000746572204D41583A2034207365636F6EB7
:100230006473204D494E3A2031204D696C6C6973CE
:1002400065636F6E642E2044656661756C743A2038
:1002500031207365636F6E640D2D57203C7374728B
:10026000696E673E205068726173652074686174BE
:1002700020796F752764206C696B6520746F20642A
:100280006973706C6179206F6E2074686520637586
:1002900062652E0D56616C696420636861726163EA
:1002A0007465727320696E636C7564653A20416C85
:1002B0007068616265742C3F2C212C2E2C3A2C2DF9
:1002C0002C5370616365204D61783A343020636847
:1002D00061726163746572730D0D4578616D706C48
:1002E000653A202D572048656C6C6F20576F726CF3
:1002F00064204F52202D5420353030204F52202D75
:10030000422035300D4E6F74652074686174206F23
:100310006E6C79206F6E6520636F6D6D616E642009
:1003200063616E2062652073656E74206174206164
:100330002074696D652E0D000057656C636F6D65E7
:1003400020746F204772616E742773204C454420DF
:10035000437562652E0D5072657373202D482074AD
:100360006F206163636573732076616C69642063D9
:100370006F6D6D616E6473202620696E7374727583
:100380006374696F6E732E0D4F746865727769734D
:1003900065207479706520612070687261736520D2
:1003A000796F752764206C696B6520746F206469B0
:1003B00073706C61792E0D000000000000000000D9
:1003C000000080000000000000000040000000006D
:1003D00000000000200000000000000000100000ED
:1003E0000000000000000800000000000000000401
:1003F00000000000000000000200000000000000FB
:1004000000010000000000000000800000003C3CF3
:1004100000000040000000666600000020000000B0
:10042000666600000010000000666600000008001C
:1004300000007E7E000000040000006666000000F0
:1004400002000000666600000001000000000000DD
:100450000000800000007C7C00000040000000667E
:10046000660000002000000066660000001000002A
:10047000007C7C00000008000000666600000004AC
:100480000000006666000000020000007C7C0000A6
:1004900000010000000000000000800000003C3C63
:1004A0000000004000000066660000002000000020
:1004B00060600000001000000060600000000800A4
:1004C000000060600000000400000066660000009C
:1004D000020000003C3C00000001000000000000A1
:1004E0000000800000007C7C0000004000000066EE
:1004F000660000002000000066660000001000009A
:100500000066660000000800000066660000000447
:100510000000006666000000020000007C7C000015
:1005200000010000000000000000800000007E7E4E
:10053000000000400000006060000000200000009B
:1005400060600000001000000078780000000800E3
:100550000000606000000004000000606000000017
:10056000020000007E7E000000010000000000008C
:100570000000800000007E7E00000040000000605F
:10058000600000002000000060600000001000001B
:10059000007878000000080000006060000000049F
:1005A00000000060600000000200000060600000C9
:1005B00000010000000000000000800000003C3C42
:1005C00000000040000000666600000020000000FF
:1005D0006060000000100000006060000000080083
:1005E00000006E6E0000000400000066660000005F
:1005F000020000003E3E000000010000000000007C
:1006000000008000000066660000004000000066F8
:100610006600000020000000666600000010000078
:10062000007E7E00000008000000666600000004F6
:100630000000006666000000020000006666000020
:1006400000010000000000000000800000003C3CB1
:10065000000000400000001818000000200000000A
:100660001818000000100000001818000000080012
:100670000000181800000004000000181800000016
:10068000020000003C3C00000001000000000000EF
:100690000000800000000606000000400000000688
:1006A0000600000020000000060600000010000008
:1006B0000006060000000800000006060000000416
:1006C0000000006666000000020000003C3C0000E4
:1006D00000010000000000000000800000006666CD
:1006E000000000400000006C6C00000020000000D2
:1006F0007878000000100000007070000000080012
:1007000000007878000000040000006C6C0000001D
:10071000020000006666000000010000000000000A
:1007200000008000000060600000004000000060E9
:100730006000000020000000606000000010000069
:10074000006060000000080000006060000000041D
:100750000000007C7C000000020000007C7C0000A7
:100760000001000000000000000080000000636342
:10077000000000400000007777000000200000002B
:100780007F7F000000100000006B6B00000008007D
:1007900000006363000000040000006363000000C9
:1007A0000200000063630000000100000000000080
:1007B0000000800000004646000000400000006687
:1007C00066000000200000007676000000100000A7
:1007D000007E7E000000080000006E6E0000000435
:1007E0000000006666000000020000006262000077
:1007F00000010000000000000000800000003C3C00
:1008000000000040000000666600000020000000BC
:100810006666000000100000006666000000080028
:10082000000066660000000400000066660000002C
:10083000020000003C3C000000010000000000003D
:100840000000800000007C7C00000040000000668A
:100850006600000020000000666600000010000036
:10086000006666000000080000007C7C00000004B8
:1008700000000060600000000200000060600000F6
:1008800000010000000000000000800000003C3C6F
:10089000000000400000006666000000200000002C
:1008A0006666000000100000006666000000080098
:1008B000000066660000000400000066660000009C
:1008C000020000003F3F00000001000000000000A7
:1008D0000000800000007C7C0000004000000066FA
:1008E00066000000200000006666000000100000A6
:1008F000007C7C0000000800000078780000000404
:100900000000006C6C000000020000006666000041
:1009100000010000000000000000800000003C3CDE
:10092000000000400000006666000000200000009B
:100930006000000000100000003C3C0000000800C7
:1009400000000606000000040000006666000000CB
:10095000020000003C3C000000010000000000001C
:100960000000800000007E7E000000400000007E4D
:100970007E00000020000000181800000010000099
:1009800000181800000008000000181800000004FB
:1009900000000018180000000200000018180000F5
:1009A00000010000000000000000800000006666FA
:1009B000000000400000006666000000200000000B
:1009C0006666000000100000006666000000080077
:1009D000000066660000000400000066660000007B
:1009E000020000003C3C000000010000000000008C
:1009F0000000800000006666000000400000006605
:100A00006600000020000000666600000010000084
:100A10000066660000000800000066660000000432
:100A20000000003C3C00000002000000181800001C
:100A3000000100000000000000008000000063636F
:100A40000000004000000063630000002000000080
:100A500063630000001000000063630000000800F2
:100A600000006B6B000000040000003E3E00000030
:100A7000020000001414000000010000000000004B
:100A80000000800000006666000000400000006674
:100A900066000000200000003C3C00000010000048
:100AA000001818000000080000003C3C0000000492
:100AB000000000666600000002000000666600009C
:100AC00000010000000000000000800000006666D9
:100AD00000000040000000666600000020000000EA
:100AE0006666000000100000003C3C0000000800AA
:100AF0000000181800000004000000181800000092
:100B000002000000181800000001000000000000B2
:100B10000000800000007E7E0000004000000066B3
:100B200066000000200000000C0C00000010000017
:100B30000018180000000800000030300000000419
:100B40000000006666000000020000007E7E0000DB
:100B500000010000000000000000800000003C3C9C
:100B60000000004000000066660000002000000059
:100B70000606000000100000001C1C000000080019
:100B80000000181800000004000000000000000031
:100B90000200000018180000000100000000000022
:100BA000000080000000181800000040000000183D
:100BB00018000000200000001818000000100000BD
:100BC00000181800000008000000181800000004B9
:100BD00000000000000000000200000018180000E3
:100BE00000010000000000000000800000003C3C0C
:100BF00000000040000000666600000020000000C9
:100C00006666000000100000006666000000080034
:100C10000000666600000004000000666600000038
:100C2000020000003C3C0000000100000000000049
:100C3000000080000000181800000040000000388C
:100C4000380000002000000018180000001000000C
:100C50000018180000000800000018180000000428
:100C60000000001818000000020000003C3C0000DA
:100C700000010000000000000000800000003C3C7B
:100C80000000004000000066660000002000000038
:100C90000606000000100000000C0C000000080018
:100CA00000001818000000040000003030000000B0
:100CB000020000007E7E0000000100000000000035
:100CC0000000800000003C3C000000400000006686
:100CD0006600000020000000060600000010000072
:100CE000000C0C00000008000000060600000004D4
:100CF0000000006666000000020000003C3C0000AE
:100D000000010000000000000000800000000E0E46
:100D10000000004000000016160000002000000047
:100D20002626000000100000006666000000080093
:100D300000007E7E000000040000000606000000A7
:100D40000200000006060000000100000000000094
:100D50000000800000007E7E000000400000006077
:100D60006000000020000000606000000010000033
:100D7000007C7C0000000800000006060000000463
:100D80000000006666000000020000003C3C00001D
:100D900000010000000000000000800000003C3C5A
:100DA0000000004000000066660000002000000017
:100DB0006060000000100000007C7C000000080063
:100DC0000000666600000004000000666600000087
:100DD000020000003C3C0000000100000000000098
:100DE0000000800000007E7E000000400000007EC9
:100DF0007E00000020000000060600000010000039
:100E0000000C0C000000080000001818000000048E
:100E10000000001818000000020000001818000070
:100E200000010000000000000000800000003C3CC9
:100E30000000004000000066660000002000000086
:100E40006666000000100000003C3C000000080046
:100E500000006666000000040000006666000000F6
:100E6000020000003C3C0000000100000000000007
:100E70000000800000003C3C0000004000000066D4
:100E80006600000020000000666600000010000000
:100E9000003E3E00000008000000060600000004BE
:100EA0000000006666000000020000003C3C0000FC
:100EB00000010000000000000000800000000000B1
:100EC0000000004000000018180000002000000092
:100ED00018180000001000000000000000000800CA
:100EE000000018180000000400000018180000009E
:100EF00002000000000000000001000000000000EF
:100F00000000800000000000000000400000007EA3
:100F10007E000000200000007E7E00000010000027
:100F2000000000000000080000007E7E00000004B9
:100F30000000007E7E0000000200000000000000B3
:100F40000001000000000000000080000000000020
:100F50000000004000000000000000002000000031
:100F60007E7E000000100000007E7E000000080071
:100F7000000000000000000400000000000000006D
:100F8000020000000000000000010000000000005E
:100F90000000800000000000000000400000000091
:100FA0000000000020000000000000000010000011
:100FB0000000000000000800000000000000000425
:100FC00000000018180000000200000018180000BF
:100FD000000111241FBECFE5D8E0DEBFCDBF10E079
:100FE000A0E6B0E0E8EBFEE102C005900D92A23968
:100FF000B107D9F720E0A2E9B0E001C01D92A63AFE
:10100000B207E1F70E94F20C0C945A0F0C94000006
:10101000CF93DF931F92CDB7DEB7698328B331E05A
:10102000232728BBC198C09B1DC02981283411F4F7
:10103000C19A19822981269526952695FC01E20FF1
:10104000F11D8081298190E0277002C095958795D8
:101050002A95E2F780FF02C0C29A01C0C298898136
:101060008F5F898389810F90DF91CF910895C19817
:1010700020E0C09AC09B1AC0283409F4C19A322FCC
:10108000359535953595FC01E30FF11D37FDFA9542
:10109000E491F0E0322F377002C0F595E7953A956C
:1010A000E2F7E0FF02C0C29A01C0C298C0982F5F69
:1010B0002934F9F6C1980895DF92EF92FF920F93C9
:1010C0001F93CF93DF938C01E62ED42EC398F12C7F
:1010D000C62FD0E08F2D992787FD90958C179D07FF
:1010E0006CF44D2D6E2DC8012F2D39E02302800D9B
:1010F000911D11240E943708F394ECCFC39ADF911D
:10110000CF911F910F91FF90EF90DF9008952F9254
:101110003F924F925F926F927F928F929F92AF9287
:10112000BF92CF92DF92EF92FF920F931F93CF93D4
:10113000DF9300D000D000D0CDB7DEB71C012A016C
:101140003B010B831C832D833E83BA82A9820981D4
:101150001A8120E030E048EC52E4C701B6010E9459
:101160005F0D9B01AC01C301B2010E945F0D9B01A9
:10117000AC016B817C818D819E810E945F0D0E94FC
:10118000C70D06171707B9F41A821982F101E80D85
:10119000F91D808190E094012F5F3F4F490180321B
:1011A0009105A1F341E0842299240E94410F8054CB
:1011B00091099C8F8B8FC40126960FB6F894DEBFE1
:1011C0000FBECDBFDF91CF911F910F91FF90EF9098
:1011D000DF90CF90BF90AF909F908F907F906F9057
:1011E0005F904F903F902F90089590BD89B988E10E
:1011F0008AB98EE880BD80B5806280BD08950F9366
:101200001F93CF93DF93162FEA019C01442737FDEC
:101210004095542F84E0220F331F441F551F8A9599
:10122000D1F760E074E284EF90E00E94290D215034
:10123000310941095109CA01B9010E94F80D0E9402
:10124000860E272F332720BD69B988E18AB911306E
:1012500011F482E08BB980E880BD002311F088E0B2
:1012600080BDC630D10519F480B5826010C0C7308A
:10127000D10519F480B584600AC0C830D10519F4CD
:1012800080B5866004C0299719F480B58E6080BD52
:10129000DF91CF911F910F9108955D9BFECF8CB987
:1012A00008955F9BFECF8CB108951F920F920FB6E9
:1012B0000F9211242F933F934F935F936F937F93DC
:1012C0008F939F93AF93BF93EF93FF9360916200CF
:1012D000209198003091990048E4429FC001439FBB
:1012E000900D112449E086549C4F0E945C08FF91A8
:1012F000EF91BF91AF919F918F917F916F915F918E
:101300004F913F912F910F900FBE0F901F90189506
:101310001F920F920FB60F9211242F933F934F936A
:101320005F936F937F938F939F93AF93BF93EF934D
:10133000FF93E0919600F0919700E959FF4F80816B
:10134000992787FD909590939E0080939D008091B2
:1013500096009091970060916000709161000196F5
:101360000E94150D909397008093960080919D00A8
:1013700090919E008F35910531F080919D00909164
:101380009E00809719F480E490E047C080919D0012
:1013900090919E00819719F48CE590E03EC0809179
:1013A0009D0090919E00CF9719F48BE590E035C099
:1013B00080919D0090919E008D9719F489E690E0B0
:1013C0002CC080919D0090919E00CD9719F488E6E5
:1013D00090E023C080919D0090919E00CA9719F4DF
:1013E00087E690E01AC080919D0090919E008E97B4
:1013F00019F48AE690E011C080919D0090919E00C2
:10140000C097A4F080919D0090919E00CA9774F4BB
:1014100080919D0090919E008D9690939E00809368
:101420009D0080919D0090919E0022C080919D0022
:1014300090919E00813491053CF080919D009091A7
:101440009E008B35910574F080919D0090919E00D7
:10145000813691059CF080919D0090919E008B3784
:10146000910564F480919D0090919E000E94410F2F
:10147000805491099093990080939800FF91EF9187
:10148000BF91AF919F918F917F916F915F914F919C
:101490003F912F910F900FBE0F901F901895BC0198
:1014A000882777FD8095982F0E94FA0D20E030E084
:1014B00048EC52E40E945F0D9B01AC0160E070E0DB
:1014C00088E092E40E945F0D0E94CC0D6CBF0895ED
:1014D0002DE023BF29B7226029BF0C944F0ACF9378
:1014E000DF9300D000D0CDB7DEB769837A838B83DA
:1014F0009C838DE08EBD89B7806189BF69817A81C7
:101500008B819C8120E030E04AE754E40E945F0D2B
:1015100020E034E244E756E40E94C00E0E94860EAA
:101520007BBD6ABD0F900F900F900F90DF91CF9110
:1015300008959AB3982B9ABB87B3682B67BB84B383
:10154000482B44BB81B3282B21BB0895480F591F5A
:10155000E0E29A01281B390B2617370778F4DA01E5
:101560002D91AD01203411F4ECB901C02CB9AFE6D6
:10157000B7E11197F1F700C00000EBCF089520E22A
:101580004617570790F4FC01E40FF51F3081303403
:1015900009F4208330813CB9EFE6F7E13197F1F7A8
:1015A00000C000004F5F5F4FEBCF0895680F791FB9
:1015B00020E28617970789F0FC013081303411F45E
:1015C0002CB903C0FC0134913CB9EFE6F7E1319747
:1015D000F1F700C000000196ECCF0895CF93DF93A0
:1015E0001F92CDB7DEB78983898190E00E94410FB9
:1015F0008034910509F440C0898190E00E94410F38
:101600008197D1F1898190E00E94410F8E97A1F1DD
:10161000898190E00E94410FCF9771F1898190E01C
:101620000E94410F8D9741F1898190E00E94410F06
:10163000CD9711F1898190E00E94410FCA97E1F0A6
:10164000898190E00E94410FC09734F0898190E039
:101650000E94410FCA9784F0898190E00E94410F57
:101660008134910514F480E008C0898190E00E94E3
:10167000410F8B359105BCF781E00F90DF91CF9141
:1016800008951F920F920FB60F9211240F931F937C
:101690002F933F934F935F936F937F938F939F937A
:1016A000AF93BF93EF93FF93CF93DF9300D000D01E
:1016B000CDB7DEB78CB180939C0080919C008032C6
:1016C00021F480E480939C0074C180919C008D3251
:1016D00041F480919500811104C081E080939500D0
:1016E00068C180919C00833479F4809195008823AF
:1016F00059F081E090E090936100809360006CE18C
:1017000070E086E790E00CC080919C00883459F42A
:1017100080919500882339F067E172E082E291E0E0
:101720000E94D60A46C180919C00873571F4809151
:101730009500882351F081E08093940081E090E04F
:1017400090936100809360000DC080919C0084356F
:1017500061F480919500882341F081E080939200AC
:1017600010929A001092950024C180919C008234BE
:1017700051F480919500882331F081E080939300AB
:1017800010929B00EFCF80919400882309F44DC004
:1017900080919C00803439F48091600090916100C8
:1017A000019709F406C180919C008D3099F46CE09A
:1017B00070E086E191E00E94D60A6091600070912D
:1017C000610041E050E087E690E00E94BF0A10927D
:1017D0009400EFC080919C000E94EE0A882399F04B
:1017E000009160001091610080919C0090E00E9447
:1017F000410FF801E959FF4F80838091600090917B
:10180000610001960DC06EE170E088E590E00E94F5
:10181000D60A80919C008CB91092940081E090E0EF
:101820009093610080936000C4C0809192008823EF
:1018300009F469C080919C00803409F4BAC0809199
:101840009C008D3009F051C040919A0050E062EA4E
:1018500070E0CE0101960E94490FCE0101960E94D0
:10186000230F8C0166E170E087ED90E00E94D60ABC
:1018700060919A0070E040E050E0CE0101960E9435
:10188000BF0A62E070E086E590E00E94D60AB801E7
:10189000882777FD8095982F8B019C010B501109AB
:1018A0002109310905391F4021053105A8F40E949D
:1018B000FA0D6093630070936400809365009093C9
:1018C0006600609163007091640080916500909162
:1018D00066000E946F0A06C069E270E08DEE90E03B
:1018E0000E94D60A1092920064C0E0919A00F0E043
:1018F00080919C00EE55FF4F808380919A008F5F0E
:1019000080939A0056C080919300882309F451C0B7
:1019100080919C00803409F44CC080919C008D30F3
:10192000D9F540919B0050E06FE970E0CE0101963F
:101930000E94490FCE0101960E94230F8C010E9741
:101940008735910538F069E270E08EEA90E00E94F8
:10195000D60A1FC06CE170E082E990E00E94D60ACE
:1019600060919B0070E040E050E0CE0101960E9443
:10197000BF0A62E070E084E590E00E94D60A10930E
:10198000900000938F0080918F00909190000E94B2
:10199000680A109293000DC0E0919B0080919C001A
:1019A000F0E0E156FF4F808380919B008F5F809332
:1019B0009B000F900F900F900F90DF91CF91FF91B0
:1019C000EF91BF91AF919F918F917F916F915F91B7
:1019D0004F913F912F911F910F910F900FBE0F903C
:1019E0001F90189520E040E06FE080E00E94990A87
:1019F00080918F00909190000E94680A609163002E
:101A00007091640080916500909166000E946F0A59
:101A100087E690E00E94F508579A789461E870E0B4
:101A200089E393E00E94D60AFFCF97FB072E16F4B6
:101A3000009407D077FD09D00E944B0D07FC05D01C
:101A40003EF4909581959F4F0895709561957F4FD5
:101A50000895A1E21A2EAA1BBB1BFD010DC0AA1FEF
:101A6000BB1FEE1FFF1FA217B307E407F50720F007
:101A7000A21BB30BE40BF50B661F771F881F991F82
:101A80001A9469F760957095809590959B01AC01CB
:101A9000BD01CF010895AA1BBB1B51E107C0AA1FBE
:101AA000BB1FA617B70710F0A61BB70B881F991FFF
:101AB0005A95A9F780959095BC01CD0108950CD059
:101AC000EBC0E3D040F0DAD030F021F45F3F19F002
:101AD000CCC0511115C1CFC0F0D098F39923C9F3F0
:101AE0005523B1F3951B550BBB27AA276217730724
:101AF000840738F09F5F5F4F220F331F441FAA1FD8
:101B0000A9F333D00E2E3AF0E0E830D09150504097
:101B1000E695001CCAF729D0FE2F27D0660F771F45
:101B2000881FBB1F261737074807AB07B0E809F027
:101B3000BB0B802DBF01FF2793585F4F2AF09E3FBC
:101B4000510568F092C0DCC05F3FECF3983EDCF3D7
:101B5000869577956795B795F7959F5FC9F7880F35
:101B6000911D9695879597F90895E1E0660F771F87
:101B7000881FBB1F621773078407BA0720F0621B18
:101B8000730B840BBA0BEE1F88F7E095089504D011
:101B90006894B111B5C0089598D088F09F5790F01F
:101BA000B92F9927B751A0F0D1F0660F771F881F82
:101BB000991F1AF0BA95C9F712C0B13081F09FD0C1
:101BC000B1E008959CC0672F782F8827B85F39F05F
:101BD000B93FCCF3869577956795B395D9F73EF4E1
:101BE00090958095709561957F4F8F4F9F4F089589
:101BF000E89409C097FB3EF49095809570956195A7
:101C00007F4F8F4F9F4F9923A9F0F92F96E9BB275C
:101C10009395F695879577956795B795F111F8CFD8
:101C2000FAF4BB0F11F460FF1BC06F5F7F4F8F4F43
:101C30009F4F16C0882311F096E911C0772321F039
:101C40009EE8872F762F05C0662371F096E8862FD1
:101C500070E060E02AF09A95660F771F881FDAF728
:101C6000880F9695879597F9089597F99F6780E86B
:101C700070E060E008959FEF80EC089500240A94DE
:101C80001616170618060906089500240A94121657
:101C90001306140605060895092E0394000C11F48A
:101CA000882352F0BB0F40F4BF2B11F460FF04C037
:101CB0006F5F7F4F8F4F9F4F089557FD9058440F90
:101CC000551F59F05F3F71F04795880F97FB991F9B
:101CD00061F09F3F79F08795089512161306140658
:101CE000551FF2CF4695F1DF08C0161617061806E5
:101CF000991FF1CF86957105610508940895E894C0
:101D0000BB2766277727CB0197F90895DEDFA8F177
:101D10009E57A8F1985160F039F1983070F5092E6E
:101D20009927660F771F881F991F0A94D1F71CC047
:101D3000BB27993F4CF4B111B1E0B62B672F782F38
:101D40008827985FB1F708C0869577956795B7950E
:101D500008F4B1609395C1F7BB0F30F411F460FF44
:101D600003C06F5F7F4F8F4F3EF4909580957095C5
:101D700061957F4F8F4F9F4F08956894C1CFBFCF1C
:101D80000BD08ACF7BDF28F080DF18F0952309F095
:101D90006CCF71CF1124B4CF90DFA0F3959FD1F316
:101DA000950F50E0551F629FF001729FBB27F00D09
:101DB000B11D639FAA27F00DB11DAA1F649F66275E
:101DC000B00DA11D661F829F2227B00DA11D621FAD
:101DD000739FB00DA11D621F839FA00D611D221F67
:101DE000749F3327A00D611D231F849F600D211D4B
:101DF000822F762F6A2F11249F5750408AF0E1F0EE
:101E000088234AF0EE0FFF1FBB1F661F771F881F36
:101E100091505040A9F79E3F510570F026CF70CFEA
:101E20005F3FECF3983EDCF3869577956795B79521
:101E3000F795E7959F5FC1F7FE2B880F911D96954B
:101E4000879597F90895FC0188279927E8942191AF
:101E50002032E9F3293010F02E30C8F32B3241F054
:101E60002D3239F4689404C00E94520F820F911DE4
:101E7000219120532A30C0F31EF4909581959F4FF5
:101E800008959111089581568A5108F48052855819
:101E90000895FB01DC0102C001900D9241505040B9
:101EA000D8F708957AE0979F902D879F802D910D08
:081EB00011240895F894FFCFFE
:101EB80001000800007A445F0000000000000000F4
:101EC800000000000000000000000000000000000A
:101ED8000000000000000000000000000000006496
:021EE8000000F8
:00000001FF
