:100000000C942A000C9447000C9447000C94470071
:100010000C9447000C9447000C9447000C94490042
:100020000C9447000C9447000C9447000C94470034
:100030000C9447000C9447000C9447000C94470024
:100040000C9447000C9447000C9447000C94470014
:100050000C94470011241FBECFE5D8E0DEBFCDBF12
:1000600010E0A0E6B0E0ECE2F1E002C005900D92F5
:10007000A037B107D9F720E0A0E7B0E001C01D929A
:10008000A237B207E1F70E9485000C9494000C940B
:1000900000001F920F920FB60F9211248F939F931F
:1000A000EF93FF9388B391E0892788BBC198B09BF9
:1000B00023C08091700090917100089729F4C19A33
:1000C0001092710010927000E0917000F091710038
:1000D000EE0FFF1FE05AFF4F80819181892B11F0B5
:1000E000C29A01C0C29880917000909171000196EF
:1000F0009093710080937000FF91EF919F918F9189
:100100000F900FBE0F901F90189587B38F6087BB1D
:100110008AE08EBD89B7806189BF88EE9DEF9BBD67
:0C0120008ABDC3987894FFCFF894FFCFFD
:10012C0001000100000000000100000001000000BF
:00000001FF
