:100000000C942A000C9447000C9447000C94470071
:100010000C9447000C9447000C9447000C94470044
:100020000C9447000C9447000C9447000C94470034
:100030000C9447000C9447000C9447000C94470024
:100040000C9447000C9447000C9447000C94470014
:100050000C94470011241FBECFE5D8E0DEBFCDBF12
:1000600010E0A0E6B0E0E0EDF0E002C005900D92F7
:10007000A636B107D9F720E0A6E6B0E001C01D9290
:10008000A936B207E1F70E9458000C9466000C9460
:1000900000005D9BFECF8CB908955F9BFECF8CB1B5
:1000A000089590BD89B988E18AB98EE880BD089528
:1000B0008AB38FEF8ABB87E690E00E9451005F9B76
:1000C000FECF8CB15D9BFECF8CB9F9CFF894FFCFFA
:0600D000440063008025DE
:00000001FF
