:100000000C942A000C9447000C9447000C94470071
:100010000C9447000C9447000C9447000C94710119
:100020000C9447000C9447000C94A4010C944700D6
:100030000C9447000C9447000C9447000C94470024
:100040000C9447000C9447000C9447000C94470014
:100050000C94470011241FBECFE5D8E0DEBFCDBF12
:1000600018E0A0E6B0E0E8EFF8E002C005900D92DD
:10007000AC30B107D9F728E0ACE0B8E001C01D9280
:10008000A531B207E1F70E9464020C947A040C9443
:100090000000CF93DF931F92CDB7DEB7698328B3FB
:1000A00031E0232728BBC198C09B1DC0298128347B
:1000B00011F4C19A19822981269526952695FC016D
:1000C000E20FF11D8081298190E0277002C0959593
:1000D00087952A95E2F780FF02C0C29A01C0C298B4
:1000E00089818F5F898389810F90DF91CF910895F6
:1000F000C19840E0C09AC09B1AC0483409F4C19A24
:10010000242F259525952595FC01E20FF11D27FD4E
:10011000FA95208130E0542F577002C0359527950D
:100120005A95E2F720FF02C0C29A01C0C298C09857
:100130004F5F4934F9F6C1980895DF92EF92FF922C
:100140000F931F93CF93DF938C01E62ED42EC39889
:10015000F12CC62FD0E08F2D992787FD90958C1715
:100160009D076CF44D2D6E2DC8012F2D39E0230213
:10017000800D911D11240E947800F394ECCFC39A56
:10018000DF91CF911F910F91FF90EF90DF90089535
:100190002F923F924F925F926F927F928F929F9297
:1001A000AF92BF92CF92DF92EF92FF920F931F9385
:1001B000CF93DF9300D000D000D0CDB7DEB71C01C5
:1001C0002A013B010B831C832D833E83BA82A982C3
:1001D00009811A8120E030E048EC52E4C701B60101
:1001E0000E9495029B01AC01C301B2010E949502DD
:1001F0009B01AC016B817C818D819E810E94950267
:100200000E94FD0206171707B9F41A821982F1013C
:10021000E80DF91D808190E094012F5F3F4F490167
:1002200080329105A1F341E0842299240E94720456
:10023000805491099C8F8B8FC40126960FB6F89439
:10024000DEBF0FBECDBFDF91CF911F910F91FF9009
:10025000EF90DF90CF90BF90AF909F908F907F9066
:100260006F905F904F903F902F90089590BD89B907
:1002700088E18AB98EE880BD80B5806280BD08952E
:100280000F9390BD89B988E18AB9613011F482E099
:100290008BB980E880BD002311F088E080BD463036
:1002A000510519F480B5826011C04730510519F429
:1002B00080B584600BC04830510519F480B5866064
:1002C00005C04930510519F480B58E6080BD0F918D
:1002D00008955D9BFECF8CB908955F9BFECF8CB1D6
:1002E00008951F920F920FB60F9211242F933F93F0
:1002F0004F935F936F937F938F939F93AF93BF932E
:10030000EF93FF936091600020910E0830910F08E9
:1003100048E4429FC001439F900D112449E08C584E
:100320009F4F0E949D00FF91EF91BF91AF919F91D0
:100330008F917F916F915F914F913F912F910F908E
:100340000FBE0F901F9018951F920F920FB60F922D
:100350001124CF92DF92EF92FF922F933F934F930E
:100360005F936F937F938F939F93AF93BF93EF931D
:10037000FF938091100890911108019690931108B5
:1003800080931008C0906300D0906400E0906500F6
:10039000F09066006091610070916200882777FD9F
:1003A0008095982F0E9430039B01AC01C701B601D4
:1003B0000E940F040E946B03E0901008F090110857
:1003C0000E94FD02E616F706C9F510921108109278
:1003D0001008E0910C08F0910D08E959FF4F808159
:1003E00090E09093140880931308809113089091E3
:1003F0001408809751F480910C0890910D08019693
:1004000090930D0880930C08E4CF80910C08909194
:100410000D08019669E070E00E94810290930D083A
:1004200080930C0880911308909114080E94720424
:100430008054910990930F0880930E08FF91EF91DB
:10044000BF91AF919F918F917F916F915F914F91EC
:100450003F912F91FF90EF90DF90CF900F900FBEC4
:100460000F901F90189520E030E048EC52E40E9475
:1004700095029B01AC0160E070E08AEF93E40E947A
:1004800095020E9402037BBD6ABD08952BE02EBD3C
:1004900029B7206129BF0E943302789408958DE026
:1004A00083BF89B7826089BF8FEF8CBF08959AB3ED
:1004B000982B9ABB87B3682B67BB84B3482B44BB8C
:1004C00081B3282B21BB089520E040E06FE080E05D
:1004D0000E945702609170007091710080917200CB
:1004E000909173000E9446020E944F0287E690E0BE
:1004F0000E9436010E946D01809312080E946901DA
:10050000F9CFAA1BBB1B51E107C0AA1FBB1FA6172F
:10051000B70710F0A61BB70B881F991F5A95A9F7AC
:1005200080959095BC01CD0108950CD027C11FD1B5
:1005300040F016D130F021F45F3F19F0DFC05111C7
:1005400068C10BC12CD198F39923C9F35523B1F39A
:10055000951B550BBB27AA2762177307840738F032
:100560009F5F5F4F220F331F441FAA1FA9F333D091
:100570000E2E3AF0E0E830D091505040E695001C45
:10058000CAF729D0FE2F27D0660F771F881FBB1F01
:10059000261737074807AB07B0E809F0BB0B802DDB
:1005A000BF01FF2793585F4F2AF09E3F510568F027
:1005B000A5C02FC15F3FECF3983EDCF3869577959D
:1005C0006795B795F7959F5FC9F7880F911D969529
:1005D000879597F90895E1E0660F771F881FBB1F85
:1005E000621773078407BA0720F0621B730B840B32
:1005F000BA0BEE1F88F7E095089504D06894B11106
:1006000008C10895D4D088F09F5790F0B92F99274A
:10061000B751A0F0D1F0660F771F881F991F1AF00D
:10062000BA95C9F712C0B13081F0F2D0B1E00895A7
:10063000EFC0672F782F8827B85F39F0B93FCCF328
:10064000869577956795B395D9F73EF49095809503
:10065000709561957F4F8F4F9F4F0895E89409C023
:1006600097FB3EF490958095709561957F4F8F4FE5
:100670009F4F9923A9F0F92F96E9BB279395F695FB
:10068000879577956795B795F111F8CFFAF4BB0F79
:1006900011F460FF1BC06F5F7F4F8F4F9F4F16C0DD
:1006A000882311F096E911C0772321F09EE8872F67
:1006B000762F05C0662371F096E8862F70E060E023
:1006C0002AF09A95660F771F881FDAF7880F96959C
:1006D000879597F9089585D080F09F3740F4911160
:1006E0000EF097C060E070E080E89FEB089526F47C
:1006F0001B16611D711D811D07C021C097F99F67E1
:1007000080E870E060E00895882371F4772321F099
:100710009850872B762F07C0662311F499270DC0B8
:100720009051862B70E060E02AF09A95660F771F53
:10073000881FDAF7880F9695879597F908959F3F58
:1007400031F0915020F4879577956795B795880F8C
:10075000911D9695879597F908959FEF80EC0895E0
:1007600000240A9416161706180609060895002490
:100770000A9412161306140605060895092E03940A
:10078000000C11F4882352F0BB0F40F4BF2B11F47E
:1007900060FF04C06F5F7F4F8F4F9F4F089557FDDD
:1007A0009058440F551F59F05F3F71F04795880FDF
:1007B00097FB991F61F09F3F79F087950895121676
:1007C00013061406551FF2CF4695F1DF08C0161622
:1007D00017061806991FF1CF8695710561050894D3
:1007E0000895E5DFA0F0BEE7B91788F4BB279F386E
:1007F00060F41616B11D672F782F8827985FF7CF02
:10080000869577956795B11D93959639C8F30895A8
:10081000E894BB2766277727CB0197F908950BD07B
:10082000ADCF9EDF28F0A3DF18F0952309F066CF47
:1008300094CF1124EECFB3DFA0F3959FD1F3950FA2
:1008400050E0551F629FF001729FBB27F00DB11D54
:10085000639FAA27F00DB11DAA1F649F6627B00DE4
:10086000A11D661F829F2227B00DA11D621F739FCD
:10087000B00DA11D621F839FA00D611D221F749FDB
:100880003327A00D611D231F849F600D211D822F22
:10089000762F6A2F11249F5750408AF0E1F0882369
:1008A0004AF0EE0FFF1FBB1F661F771F881F915076
:1008B0005040A9F79E3F510570F020CFAACF5F3F6F
:1008C000ECF3983EDCF3869577956795B795F795A9
:1008D000E7959F5FC1F7FE2B880F911D9695879531
:1008E00097F908959111089581568A5108F480521C
:0808F00085580895F894FFCF2C
:1008F800083D000000803F496D20616C6976650005
:100908000000A0410000000000000000800000007E
:10091800000000000040000000000000000020006F
:1009280000000000000000100000000000000000AF
:1009380008000000000000000004000000000000A3
:10094800000002000000000000000001000000009C
:1009580000000000800000003C3C00000040000057
:1009680000666600000020000000666600000010B7
:100978000000006666000000080000007E7E00009F
:1009880000040000006666000000020000006666C1
:1009980000000001000000000000000080000000CE
:1009A8007C7C00000040000000666600000020001B
:1009B80000006666000000100000007C7C0000005B
:1009C800080000006666000000040000006666007B
:1009D8000000020000007C7C000000010000000014
:1009E80000000000800000003C3C000000400000C7
:1009F8000066660000002000000060600000001033
:100A08000000006060000000080000006060000056
:100A180000040000006666000000020000003C3C84
:100A2800000000010000000000000000800000003D
:100A38007C7C00000040000000666600000020008A
:100A480000006666000000100000006666000000F6
:100A580008000000666600000004000000666600EA
:100A68000000020000007C7C000000010000000083
:100A780000000000800000007E7E000000400000B2
:100A880000606000000020000000606000000010AE
:100A98000000007878000000080000006060000096
:100AA80000040000006060000000020000007E7E7C
:100AB80000000001000000000000000080000000AD
:100AC8007E7E000000400000006060000000200002
:100AD800000060600000001000000078780000004E
:100AE8000800000060600000000400000060600072
:100AF800000002000000606000000001000000002B
:100B080000000000800000003C3C000000400000A5
:100B18000066660000002000000060600000001011
:100B28000000006060000000080000006E6E000019
:100B380000040000006666000000020000003E3E5F
:100B4800000000010000000000000000800000001C
:100B58006666000000400000006666000000200095
:100B680000006666000000100000007E7E000000A5
:100B780008000000666600000004000000666600C9
:100B8800000002000000666600000001000000008E
:100B980000000000800000003C3C00000040000015
:100BA80000181800000020000000181800000010AD
:100BB80000000018180000000800000018180000C5
:100BC80000040000001818000000020000003C3C6F
:100BD800000000010000000000000000800000008C
:100BE8000606000000400000000606000000200085
:100BF80000000606000000100000000606000000C5
:100C080008000000060600000004000000666600F8
:100C18000000020000003C3C000000010000000051
:100C28000000000080000000666600000040000030
:100C3800006C6C00000020000000787800000010B4
:100C480000000070700000000800000078780000C4
:100C580000040000006C6C000000020000006666E2
:100C680000000001000000000000000080000000FB
:100C7800606000000040000000606000000020008C
:100C880000006060000000100000006060000000CC
:100C9800080000006060000000040000007C7C0088
:100CA8000000020000007C7C000000010000000041
:100CB80000000000800000006363000000400000A6
:100CC800007777000000200000007F7F0000001000
:100CD8000000006B6B000000080000006363000068
:100CE800000400000063630000000200000063636A
:100CF800000000010000000000000000800000006B
:100D08004646000000400000006666000000200023
:100D180000007676000000100000007E7E000000D3
:100D2800080000006E6E0000000400000066660007
:100D380000000200000062620000000100000000E4
:100D480000000000800000003C3C00000040000063
:100D580000666600000020000000666600000010C3
:100D680000000066660000000800000066660000DB
:100D780000040000006666000000020000003C3C21
:100D880000000001000000000000000080000000DA
:100D98007C7C000000400000006666000000200027
:100DA8000000666600000010000000666600000093
:100DB800080000007C7C0000000400000060600067
:100DC8000000020000006060000000010000000058
:100DD80000000000800000003C3C000000400000D3
:100DE8000066660000002000000066660000001033
:100DF800000000666600000008000000666600004B
:100E080000040000006666000000020000003F3F8A
:100E18000000000100000000000000008000000049
:100E28007C7C000000400000006666000000200096
:100E380000006666000000100000007C7C000000D6
:100E4800080000007878000000040000006C6C00C6
:100E580000000200000066660000000100000000BB
:100E680000000000800000003C3C00000040000042
:100E7800006666000000200000006000000000100E
:100E88000000003C3C0000000800000006060000CE
:100E980000040000006666000000020000003C3C00
:100EA80000000001000000000000000080000000B9
:100EB8007E7E000000400000007E7E0000002000D2
:100EC80000001818000000100000001818000000AA
:100ED800080000001818000000040000001818009E
:100EE80000000200000018180000000100000000C7
:100EF800000000008000000066660000004000005E
:100F08000066660000002000000066660000001011
:100F18000000006666000000080000006666000029
:100F280000040000006666000000020000003C3C6F
:100F38000000000100000000000000008000000028
:100F480066660000004000000066660000002000A1
:100F580000006666000000100000006666000000E1
:100F6800080000006666000000040000003C3C0029
:100F78000000020000001818000000010000000036
:100F880000000000800000006363000000400000D3
:100F9800006363000000200000006363000000108D
:100FA8000000006363000000080000006B6B000095
:100FB80000040000003E3E0000000200000014147F
:100FC8000000000100000000000000008000000098
:100FD8006666000000400000006666000000200011
:100FE80000003C3C00000010000000181800000041
:100FF800080000003C3C0000000400000066660099
:101008000000020000006666000000010000000009
:10101800000000008000000066660000004000003C
:1010280000666600000020000000666600000010F0
:101038000000003C3C0000000800000018180000F8
:101048000004000000181800000002000000181832
:101058000000000100000000000000008000000007
:101068007E7E000000400000006666000000200050
:1010780000000C0C00000010000000181800000010
:101088000800000030300000000400000066660020
:0C1098000000020000007E7E000000014D
:00000001FF
