:100000000C942A000C9447000C9447000C94470071
:100010000C9447000C9447000C9447000C94C901C1
:100020000C9447000C9447000C9496010C944700E4
:100030000C9447000C94A0020C9447000C944700C9
:100040000C9447000C9447000C9447000C94470014
:100050000C94470011241FBECFE5D8E0DEBFCDBF12
:1000600015E0A0E6B0E0E6E4FDE002C005900D92E8
:10007000AA39B107D9F725E0AAE9B5E001C01D9278
:10008000AD3AB207E1F70E9437040C94A1060C9434
:100090000000CF93DF931F92CDB7DEB7698328B3FB
:1000A00031E0232728BBC198C09B1DC0298128347B
:1000B00011F4C19A19822981269526952695FC016D
:1000C000E20FF11D8081298190E0277002C0959593
:1000D00087952A95E2F780FF02C0C29A01C0C298B4
:1000E00089818F5F898389810F90DF91CF910895F6
:1000F000C19840E0C09AC09B1AC0483409F4C19A24
:10010000242F259525952595FC01E20FF11D27FD4E
:10011000FA95208130E0542F577002C0359527950D
:100120005A95E2F720FF02C0C29A01C0C298C09857
:100130004F5F4934F9F6C1980895DF92EF92FF922C
:100140000F931F93CF93DF938C01E62ED42EC39889
:10015000F12CC62FD0E08F2D992787FD90958C1715
:100160009D076CF44D2D6E2DC8012F2D39E0230213
:10017000800D911D11240E947800F394ECCFC39A56
:10018000DF91CF911F910F91FF90EF90DF90089535
:100190002F923F924F925F926F927F928F929F9297
:1001A000AF92BF92CF92DF92EF92FF920F931F9385
:1001B000CF93DF9300D000D000D0CDB7DEB71C01C5
:1001C0002A013B010B831C832D833E83BA82A982C3
:1001D00009811A8120E030E048EC52E4C701B60101
:1001E0000E94A6049B01AC01C301B2010E94A604B7
:1001F0009B01AC016B817C818D819E810E94A60454
:100200000E940E0506171707B9F41A821982F10128
:10021000E80DF91D808190E094012F5F3F4F490167
:1002200080329105A1F341E0842299240E9488063E
:10023000805491099C8F8B8FC40126960FB6F89439
:10024000DEBF0FBECDBFDF91CF911F910F91FF9009
:10025000EF90DF90CF90BF90AF909F908F907F9066
:100260006F905F904F903F902F90089590BD89B907
:1002700088E18AB98EE880BD80B5806280BD08952E
:100280000F931F93CF93DF93162FEA019C0144270E
:1002900037FD4095542F84E0220F331F441F551F14
:1002A0008A95D1F760E074E284EF90E00E947004D8
:1002B0002150310941095109CA01B9010E943F0584
:1002C0000E94CD05272F332720BD69B988E18AB95F
:1002D000113011F482E08BB980E880BD002311F069
:1002E00088E080BDC630D10519F480B5826010C0A9
:1002F000C730D10519F480B584600AC0C830D10573
:1003000019F480B5866004C0299719F480B58E6011
:1003100080BDDF91CF911F910F9108955D9BFECF1E
:100320008CB908955F9BFECF8CB108951F920F92F8
:100330000FB60F9211242F933F934F935F936F93B8
:100340007F938F939F93AF93BF93EF93FF936091AE
:1003500062002091A0053091A10548E4429FC001B0
:10036000439F900D112449E08F5C9B4F0E949D009C
:10037000FF91EF91BF91AF919F918F917F916F917D
:100380005F914F913F912F910F900FBE0F901F9053
:1003900018951F920F920FB60F9211242F933F932F
:1003A0004F935F936F937F938F939F93AF93BF937D
:1003B000EF93FF93E0919E05F0919F05E959FF4F60
:1003C00080818093A5058091A505803321F08091DF
:1003D000A505803219F480E48093A50580919E05DF
:1003E00090919F05609160007091610001960E945C
:1003F0005C0490939F0580939E058091A50590E0F5
:100400000E948806805491099093A1058093A005CD
:10041000FF91EF91BF91AF919F918F917F916F91DC
:100420005F914F913F912F910F900FBE0F901F90B2
:100430001895BC01882777FD8095982F0E9441056B
:1004400020E030E048EC52E40E94A6049B01AC019D
:1004500060E070E088E092E40E94A6040E94130528
:100460006CBF08952DE023BF29B7226029BF0C94EB
:100470001902CF93DF9300D000D0CDB7DEB76983E8
:100480007A838B839C838DE08EBD89B7806189BF21
:1004900069817A818B819C8120E030E04AE754E4D5
:1004A0000E94A60420E034E244E756E40E940706D6
:1004B0000E94CD057BBD6ABD0F900F900F900F90ED
:1004C000DF91CF9108959AB3982B9ABB87B3682B8D
:1004D00067BB84B3482B44BB81B3282B21BB089551
:1004E00020E24617570790F4FC01E40FF51F308116
:1004F000303409F4208330813CB9EFE6F7E13197DD
:10050000F1F700C000004F5F5F4FEBCF089520E090
:1005100030E040E22617370791F0FC01E20FF31FAD
:100520005081503409F4408350815CB9EFE6F7E123
:100530003197F1F700C000002F5F3F4FEBCF0895D8
:100540001F920F920FB60F9211240F931F932F93A8
:100550003F934F935F936F937F938F939F93AF934B
:10056000BF93EF93FF93CF93DF9300D000D0CDB72D
:10057000DEB78CB18093A4058091A405803219F474
:1005800080E48093A4058091A4058D3239F4809194
:100590009D05811103C081E080939D058091A40594
:1005A000833489F480919D05882369F081E090E08F
:1005B000909361008093600040E050E06CE170E057
:1005C0008DEA90E00EC08091A405883469F4809192
:1005D0009D05882349F040E050E067E572E089E539
:1005E00091E00E9470022AC18091A405873571F4C0
:1005F00080919D05882351F081E080939C0581E0E6
:1006000090E090936100809360000DC08091A405FC
:10061000843561F480919D05882341F081E08093C9
:100620009A051092A20510929D0508C18091A4051B
:10063000823451F480919D05882331F081E08093CC
:100640009B051092A305EFCF80919C058823D1F1E3
:100650008091A405803439F480916000909161000C
:10066000019709F4EBC08091A4058D30A9F440E016
:1006700050E06CE070E08DE491E00E9470026091C7
:1006800060007091610041E050E087E690E00E94D8
:10069000700210929C05D2C0009160001091610020
:1006A0008091A40590E00E948806F801E959FF4F67
:1006B0008083809160009091610001969093610029
:1006C0008093600080919A05882309F464C080912A
:1006D000A405803409F4B2C08091A4058D3009F0DE
:1006E0004DC04091A20550E069EA75E0CE01019647
:1006F0000E949006CE0101960E946A068C0140E09D
:1007000050E066E170E08EE091E00E94700260913E
:10071000A20570E0CE0101960E948702B8018827E9
:1007200077FD8095982F8B019C010A5011092109B2
:10073000310907391F402105310548F040E050E0FC
:1007400069E270E084E291E00E94700214C00E94AD
:1007500041056093630070936400809365009093FB
:1007600066006091630070916400809165009091D3
:1007700066000E94390210929A0560C0E091A205BD
:10078000F0E08091A405E755FA4F80838091A2059F
:100790008F5F8093A20580919B05882309F44EC04A
:1007A0008091A405803409F449C08091A4058D305E
:1007B000C1F54091A30550E066EA75E0CE010196CF
:1007C0000E949006CE0101960E946A068C0140E0CC
:1007D00050E06CE170E089EC90E00E947002609162
:1007E000A30570E0CE0101960E948702C8010E9712
:1007F0008735910548F040E050E069E270E085EE11
:1008000090E00E9470020AC01093900000938F0045
:1008100080918F00909190000E94320210929B056F
:100820000DC0E091A3058091A405F0E0EA55FA4FD0
:1008300080838091A3058F5F8093A3050F900F9015
:100840000F900F90DF91CF91FF91EF91BF91AF91FA
:100850009F918F917F916F915F914F913F912F91D8
:100860001F910F910F900FBE0F901F90189520E0D1
:1008700040E06FE080E00E94630280918F009091E1
:1008800090000E9432026091630070916400809138
:100890006500909166000E94390287E690E00E9410
:1008A0003601579A789440E050E061E870E080EBC0
:1008B00093E00E947002FFCF97FB072E16F400947E
:1008C00007D077FD09D00E94920407FC05D03EF4C2
:1008D000909581959F4F0895709561957F4F0895EC
:1008E000A1E21A2EAA1BBB1BFD010DC0AA1FBB1F34
:1008F000EE1FFF1FA217B307E407F50720F0A21BA6
:10090000B30BE40BF50B661F771F881F991F1A9412
:1009100069F760957095809590959B01AC01BD013C
:10092000CF010895AA1BBB1B51E107C0AA1FBB1F23
:10093000A617B70710F0A61BB70B881F991F5A956B
:10094000A9F780959095BC01CD0108950CD0EBC01E
:10095000E3D040F0DAD030F021F45F3F19F0CCC0A2
:10096000511115C1CFC0F0D098F39923C9F3552385
:10097000B1F3951B550BBB27AA2762177307840792
:1009800038F09F5F5F4F220F331F441FAA1FA9F348
:1009900033D00E2E3AF0E0E830D091505040E6953A
:1009A000001CCAF729D0FE2F27D0660F771F881F9B
:1009B000BB1F261737074807AB07B0E809F0BB0B8A
:1009C000802DBF01FF2793585F4F2AF09E3F5105AE
:1009D00068F092C0DCC05F3FECF3983EDCF3869594
:1009E00077956795B795F7959F5FC9F7880F911D24
:1009F0009695879597F90895E1E0660F771F881F10
:100A0000BB1F621773078407BA0720F0621B730BC2
:100A1000840BBA0BEE1F88F7E095089504D0689414
:100A2000B111B5C0089598D088F09F5790F0B92FB4
:100A30009927B751A0F0D1F0660F771F881F991F33
:100A40001AF0BA95C9F712C0B13081F09FD0B1E069
:100A500008959CC0672F782F8827B85F39F0B93F79
:100A6000CCF3869577956795B395D9F73EF4909535
:100A70008095709561957F4F8F4F9F4F0895E894B3
:100A800009C097FB3EF490958095709561957F4FD6
:100A90008F4F9F4F9923A9F0F92F96E9BB27939584
:100AA000F695879577956795B795F111F8CFFAF494
:100AB000BB0F11F460FF1BC06F5F7F4F8F4F9F4FC5
:100AC00016C0882311F096E911C0772321F09EE823
:100AD000872F762F05C0662371F096E8862F70E089
:100AE00060E02AF09A95660F771F881FDAF7880F63
:100AF0009695879597F9089597F99F6780E870E034
:100B000060E008959FEF80EC089500240A94161683
:100B1000170618060906089500240A9412161306EB
:100B2000140605060895092E0394000C11F4882379
:100B300052F0BB0F40F4BF2B11F460FF04C06F5F95
:100B40007F4F8F4F9F4F089557FD9058440F551F6B
:100B500059F05F3F71F04795880F97FB991F61F03F
:100B60009F3F79F087950895121613061406551FB6
:100B7000F2CF4695F1DF08C0161617061806991F22
:100B8000F1CF86957105610508940895E894BB2717
:100B900066277727CB0197F90895DEDFA8F19E57E6
:100BA000A8F1985160F039F1983070F5092E992725
:100BB000660F771F881F991F0A94D1F71CC0BB27A7
:100BC000993F4CF4B111B1E0B62B672F782F8827ED
:100BD000985FB1F708C0869577956795B79508F443
:100BE000B1609395C1F7BB0F30F411F460FF03C0FF
:100BF0006F5F7F4F8F4F3EF4909580957095619514
:100C00007F4F8F4F9F4F08956894C1CFBFCF0BD0B8
:100C10008ACF7BDF28F080DF18F0952309F06CCFB6
:100C200071CF1124B4CF90DFA0F3959FD1F3950F2E
:100C300050E0551F629FF001729FBB27F00DB11D60
:100C4000639FAA27F00DB11DAA1F649F6627B00DF0
:100C5000A11D661F829F2227B00DA11D621F739FD9
:100C6000B00DA11D621F839FA00D611D221F749FE7
:100C70003327A00D611D231F849F600D211D822F2E
:100C8000762F6A2F11249F5750408AF0E1F0882375
:100C90004AF0EE0FFF1FBB1F661F771F881F915082
:100CA0005040A9F79E3F510570F026CF70CF5F3FAF
:100CB000ECF3983EDCF3869577956795B795F795B5
:100CC000E7959F5FC1F7FE2B880F911D969587953D
:100CD00097F90895FC0188279927E89421912032FB
:100CE000E9F3293010F02E30C8F32B3241F02D32C9
:100CF00039F4689404C00E949906820F911D2191D5
:100D000020532A30C0F31EF4909581959F4F08958B
:100D10009111089581568A5108F48052855808959A
:100D2000FB01DC0102C001900D9241505040D8F708
:100D300008957AE0979F902D879F802D910D112423
:060D40000895F894FFCFB6
:100D460001000800007A44300000000000000000A6
:100D5600000000000000000000000000000000008D
:100D6600000000000000000000000000000000324B
:100D7600000D6865726533000D6865726532000D99
:100D86006865726531000D686572652E000D596FD4
:100D960075206861766520636C6561726564207490
:100DA600686520637562652E000D596F7520736541
:100DB6007420746865206272696768746E657373FF
:100DC60020746F3A000D5468652076616C75652055
:100DD600796F7520656E7465726564206973206F1E
:100DE6007574206F6620626F756E64732E000D59E0
:100DF6006F7520736574207468652074696D65204D
:100E0600746F3A000D5468652076616C75652079BB
:100E16006F7520656E7465726564206973206F75E1
:100E260074206F6620626F756E64732E000D596FA5
:100E3600752077726F74653A000D4F7074696F6E26
:100E4600733A0D2D42203C696E74656765723E20CB
:100E560050657263656E74616765206F6620746F96
:100E660074616C206272696768746E657373207949
:100E76006F752764206C696B6520746865206375DF
:100E8600626520746F20646973706C6179204D41CE
:100E9600583A20313030204D494E3A2031342E20F8
:100EA60044656661756C74203130302070657263FC
:100EB600656E740D2D43205468697320636C6561FB
:100EC600727320746865206578697374696E67202B
:100ED600776F7264206265696E6720646973706CEF
:100EE600617965642066726F6D206D656D6F7279CC
:100EF6002E0D2D54203C696E74656765723E205434
:100F0600696D6520696E206D696C6C697365636FC8
:100F16006E647320746861742074686520637562FA
:100F2600652077696C6C20646973706C61792065E3
:100F3600616368206C6574746572204D41583A206F
:100F460034207365636F6E6473204D494E3A2031C9
:100F5600204D696C6C697365636F6E642E20446501
:100F66006661756C743A2031207365636F6E640D2B
:100F76002D57203C737472696E673E20506872610B
:100F86007365207468617420796F752764206C69B5
:100F96006B6520746F20646973706C6179206F6E65
:100FA6002074686520637562652E0D56616C6964F0
:100FB600206368617261637465727320696E636C25
:100FC6007564653A20416C7068616265742C3F2CCB
:100FD600212C5370616365204D61783A343020636B
:100FE6006861726163746572730D0D4578616D7029
:100FF6006C653A202D572048656C6C6F20576F72D0
:101006006C64202D5420353030202D422035300D93
:10101600546869732077696C6C20646973706C61BD
:10102600792048656C6C6F20576F726C64206F6E08
:101036002074686520637562652031206C65747460
:10104600657220617420612074696D65206469731E
:10105600706C6179696E67206561636820666F727E
:1010660020312F32207365636F6E642061742035E2
:10107600302070657263656E742062726967687489
:101086006E6573732E0D0000000000000000000066
:1010960057656C636F6D6520746F204772616E745F
:1010A6002773204C454420437562652E0D507265AA
:1010B6007373202D4820746F2061636365737320FA
:1010C60076616C696420636F6D6D616E6473202652
:1010D60020696E737472756374696F6E732E0D4F2B
:1010E600746865727769736520747970652061200C
:1010F60070687261736520796F752764206C696BFF
:101106006520746F20646973706C61792E0D000020
:101116000000000000000000008000000000000049
:101126000000400000000000000000200000000059
:101136000000000010000000000000000008000091
:101146000000000000000400000000000000000293
:101156000000000000000000010000000000000088
:1011660000800000003C3C00000040000000666675
:10117600000000200000006666000000100000006D
:101186006666000000080000007E7E000000040085
:1011960000006666000000020000006666000000AF
:1011A600010000000000000000800000007C7C00C0
:1011B6000000400000006666000000200000006697
:1011C60066000000100000007C7C000000080000A3
:1011D600006666000000040000006666000000026B
:1011E6000000007C7C000000010000000000000000
:1011F60000800000003C3C000000400000006666E5
:1012060000000020000000606000000010000000E8
:10121600606000000008000000606000000004003C
:1012260000006666000000020000003C3C00000072
:10123600010000000000000000800000007C7C002F
:101246000000400000006666000000200000006606
:10125600660000001000000066660000000800003E
:1012660000666600000004000000666600000002DA
:0A1276000000007C7C000000010075
:00000001FF
