:100000000C942A000C9434000C9434000C943400AA
:100010000C9434000C9434000C9434000C94340090
:100020000C9434000C9434000C9434000C94340080
:100030000C9434000C9434000C9434000C94340070
:100040000C9434000C9434000C9434000C94340060
:100050000C94340011241FBECFE5D8E0DEBFCDBF25
:100060000E9436000C9445000C94000081E087BB90
:100070008EBD21E08CB59DB581349C49D8F31DBC63
:0E0080001CBC88B3822788BBF5CFF894FFCF55
:00000001FF
