:100000000C942A000C9447000C9447000C94470071
:100010000C9447000C9447000C9447000C94780013
:100020000C9447000C9447000C9447000C94470034
:100030000C9447000C9447000C9447000C94470024
:100040000C9447000C9447000C9447000C94470014
:100050000C94470011241FBECFE5D8E0DEBFCDBF12
:1000600018E0A0E6B0E0E6E6F2E002C005900D92EE
:10007000A234B107D9F728E0A2E4B8E001C01D928C
:10008000A734B207E1F70E94D4000C9431010C941C
:100090000000CF93DF931F92CDB7DEB7698328B3FB
:1000A00031E0232728BBC198C09B1DC0298128347B
:1000B00011F4C19A19822981269526952695FC016D
:1000C000E20FF11D8081298190E0277002C0959593
:1000D00087952A95E2F780FF02C0C29A01C0C298B4
:1000E00089818F5F898389810F90DF91CF910895F6
:1000F0001F920F920FB60F9211242F933F938F935D
:100100009F93EF93FF9388B391E0892788BBC09BAF
:1001100026C090914208E0914508809146082091C0
:10012000460886958695869539E0E39FF00111246F
:1001300038E4939FE00DF11D1124EE59FF4FE80FB5
:10014000F11D808190E0277002C0959587952A95D2
:10015000E2F780FF02C0C29A1CC0C2981AC0809108
:100160004608883481F4C19A109246088091450867
:100170008F5F8093450880914508883021F4109264
:10018000450890934308809146088F5F8093460806
:10019000C198FF91EF919F918F913F912F910F9077
:1001A0000FBE0F901F90189587B38F6087BB89E0B3
:1001B0008EBD89B7806189BF84E690E09BBD8ABD12
:1001C00088B388BB7894E091610080916000E89FDB
:1001D000F00111242AE130E080914308882339F0AE
:1001E000809144088F5F8093440810924308809167
:1001F000440890E08E179F0779F78091420890E0BD
:100200000196B9010E9409018093420810924408A6
:10021000E3CF97FB072E16F4009407D077FD09D0A3
:100220000E941D0107FC05D03EF4909581959F4FDB
:100230000895709561957F4F0895AA1BBB1B51E1EE
:1002400007C0AA1FBB1FA617B70710F0A61BB70B46
:10025000881F991F5A95A9F780959095BC01CD01EB
:060260000895F894FFCFA1
:1002660001100000000000000000800000003C3C7F
:10027600000000400000006666000000200000004C
:1002860066660000001000000066660000000800B8
:1002960000007E7E0000000400000066660000008C
:1002A6000200000066660000000100000000000079
:1002B6000000800000007C7C00000040000000661A
:1002C60066000000200000006666000000100000C6
:1002D600007C7C0000000800000066660000000448
:1002E6000000006666000000020000007C7C000042
:1002F60000010000000000000000800000003C3CFF
:1003060000000040000000666600000020000000BB
:10031600606000000010000000606000000008003F
:100326000000606000000004000000666600000037
:10033600020000003C3C000000010000000000003C
:100346000000800000007C7C000000400000006689
:100356006600000020000000666600000010000035
:1003660000666600000008000000666600000004E3
:100376000000006666000000020000007C7C0000B1
:1003860000010000000000000000800000007E7EEA
:100396000000004000000060600000002000000037
:1003A600606000000010000000787800000008007F
:1003B60000006060000000040000006060000000B3
:1003C600020000007E7E0000000100000000000028
:1003D6000000800000007E7E0000004000000060FB
:1003E60060000000200000006060000000100000B7
:1003F600007878000000080000006060000000043B
:100406000000006060000000020000006060000064
:1004160000010000000000000000800000003C3CDD
:10042600000000400000006666000000200000009A
:10043600606000000010000000606000000008001E
:1004460000006E6E000000040000006666000000FA
:10045600020000003E3E0000000100000000000017
:100466000000800000006666000000400000006694
:100476006600000020000000666600000010000014
:10048600007E7E0000000800000066660000000492
:1004960000000066660000000200000066660000BC
:1004A60000010000000000000000800000003C3C4D
:1004B60000000040000000181800000020000000A6
:1004C60018180000001000000018180000000800AE
:1004D60000001818000000040000001818000000B2
:1004E600020000003C3C000000010000000000008B
:1004F6000000800000000606000000400000000624
:1005060006000000200000000606000000100000A3
:1005160000060600000008000000060600000004B1
:100526000000006666000000020000003C3C00007F
:100536000001000000000000000080000000666668
:10054600000000400000006C6C000000200000006D
:1005560078780000001000000070700000000800AD
:1005660000007878000000040000006C6C000000B9
:1005760002000000666600000001000000000000A6
:100586000000800000006060000000400000006085
:100596006000000020000000606000000010000005
:1005A60000606000000008000000606000000004B9
:1005B6000000007C7C000000020000007C7C000043
:1005C60000010000000000000000800000006363DE
:1005D60000000040000000777700000020000000C7
:1005E6007F7F000000100000006B6B000000080019
:1005F6000000636300000004000000636300000065
:10060600020000006363000000010000000000001B
:100616000000800000004646000000400000006622
:100626006600000020000000767600000010000042
:10063600007E7E000000080000006E6E00000004D0
:100646000000006666000000020000006262000012
:1006560000010000000000000000800000003C3C9B
:100666000000004000000066660000002000000058
:1006760066660000001000000066660000000800C4
:1006860000006666000000040000006666000000C8
:10069600020000003C3C00000001000000000000D9
:1006A6000000800000007C7C000000400000006626
:1006B60066000000200000006666000000100000D2
:1006C600006666000000080000007C7C0000000454
:1006D6000000006060000000020000006060000092
:1006E60000010000000000000000800000003C3C0B
:1006F60000000040000000666600000020000000C8
:100706006666000000100000006666000000080033
:100716000000666600000004000000666600000037
:10072600020000003F3F0000000100000000000042
:100736000000800000007C7C000000400000006695
:100746006600000020000000666600000010000041
:10075600007C7C000000080000007878000000049F
:100766000000006C6C0000000200000066660000DD
:1007760000010000000000000000800000003C3C7A
:100786000000004000000066660000002000000037
:100796006000000000100000003C3C000000080063
:1007A6000000060600000004000000666600000067
:1007B600020000003C3C00000001000000000000B8
:1007C6000000800000007E7E000000400000007EE9
:1007D6007E00000020000000181800000010000035
:1007E6000018180000000800000018180000000497
:1007F6000000001818000000020000001818000091
:100806000001000000000000000080000000666695
:1008160000000040000000666600000020000000A6
:100826006666000000100000006666000000080012
:100836000000666600000004000000666600000016
:10084600020000003C3C0000000100000000000027
:1008560000008000000066660000004000000066A0
:100866006600000020000000666600000010000020
:1008760000666600000008000000666600000004CE
:100886000000003C3C0000000200000018180000B8
:10089600000100000000000000008000000063630B
:1008A600000000400000006363000000200000001C
:1008B600636300000010000000636300000008008E
:1008C60000006B6B000000040000003E3E000000CC
:1008D60002000000141400000001000000000000E7
:1008E6000000800000006666000000400000006610
:1008F60066000000200000003C3C000000100000E4
:10090600001818000000080000003C3C000000042D
:100916000000006666000000020000006666000037
:100926000001000000000000000080000000666674
:100936000000004000000066660000002000000085
:100946006666000000100000003C3C000000080045
:10095600000018180000000400000018180000002D
:10096600020000001818000000010000000000004E
:100976000000800000007E7E00000040000000664F
:1009860066000000200000000C0C000000100000B3
:1009960000181800000008000000303000000004B5
:1009A6000000006666000000020000007E7E000077
:1009B6000001000000000000000080000000181880
:1009C6000000004000000018180000002000000091
:1009D6001818000000100000001818000000080099
:1009E60000001818000000040000000000000000CD
:1009F60002000000181800000001000000000000BE
:100A06000000800000003C3C000000400000006642
:100A1600660000002000000006060000001000002E
:100A2600001C1C000000080000001818000000044C
:100A3600000000000000000002000000181800007E
:020A46000001AD
:00000001FF
