:100000000C942A000C9447000C9447000C94470071
:100010000C9447000C9447000C9447000C949C00EF
:100020000C9447000C9447000C9447000C94470034
:100030000C9447000C9447000C9447000C94470024
:100040000C9447000C9447000C9447000C94470014
:100050000C94470011241FBECFE5D8E0DEBFCDBF12
:1000600018E0A0E6B0E0ECEFF4E002C005900D92DD
:10007000AA30B107D9F728E0AAE0B8E001C01D9284
:10008000A331B207E1F70E94DE000C947C020C94CD
:100090000000CF93DF931F92CDB7DEB7698328B3FB
:1000A00031E0232728BBC198C09B1DC0298128347B
:1000B00011F4C19A19822981269526952695FC016D
:1000C000E20FF11D8081298190E0277002C0959593
:1000D00087952A95E2F780FF02C0C29A01C0C298B4
:1000E00089818F5F898389810F90DF91CF910895F6
:1000F0000F9328B34095422348BB28B300950223B1
:1001000008BB40E051E028B3252728BBC09B0EC0A8
:10011000FC01208130E0042E02C0359527950A9419
:10012000E2F720FF02C0C29A01C0C2984F5F44307C
:1001300051F781E00F9108951F920F920FB60F9221
:1001400011240F932F933F934F935F936F937F935C
:100150008F939F93AF93BF93EF93FF938091110879
:1001600029E0829FC001112408E024E042E061E020
:1001700086529E4F0E94780080930A088091110851
:100180008F5F8093110880911108883029F41092B4
:10019000110881E080930C08FF91EF91BF91AF911E
:1001A0009F918F917F916F915F914F913F912F918F
:1001B0000F910F900FBE0F901F90189587B38F600F
:1001C00087BB89E08EBD89B7806189BF80916B0054
:1001D00090916C009BBD8ABDC3987894609171002A
:1001E00070E080E090E00E94530120916D0030911A
:1001F0006E0040916F00509170000E94C8010E94F3
:100200008E018B019C01EBE0F0E080910C088823CB
:10021000A9F080910D0890910E08A0910F08B0915F
:1002200010080196A11DB11D80930D0890930E0832
:10023000A0930F08B093100810920C0880910D083D
:1002400090910E08A0910F08B091100880179107A7
:10025000A207B307D1F680910B0890E00196BF0189
:100260000E943D0180930B0810920D0810920E0819
:1002700010920F0810921008C8CFAA1BBB1B51E1A7
:1002800007C0AA1FBB1FA617B70710F0A61BB70B06
:10029000881F991F5A95A9F780959095BC01CD01AB
:1002A0000895E89409C097FB3EF490958095709569
:1002B00061957F4F8F4F9F4F9923A9F0F92F96E9B2
:1002C000BB279395F695879577956795B795F11127
:1002D000F8CFFAF4BB0F11F460FF1BC06F5F7F4FC4
:1002E0008F4F9F4F16C0882311F096E911C07723D6
:1002F00021F09EE8872F762F05C0662371F096E8DF
:10030000862F70E060E02AF09A95660F771F881FAD
:10031000DAF7880F9695879597F90895CCD0A8F1CC
:100320009E57A8F1985160F039F1983070F5092E78
:100330009927660F771F881F991F0A94D1F71CC051
:10034000BB27993F4CF4B111B1E0B62B672F782F42
:100350008827985FB1F708C0869577956795B79518
:1003600008F4B1609395C1F7BB0F30F411F460FF4E
:1003700003C06F5F7F4F8F4F3EF4909580957095CF
:1003800061957F4F8F4F9F4F08956894AFC0ADC068
:100390000BD078C069D028F06ED018F0952309F002
:1003A0005AC05FC01124A2C07ED0A0F3959FD1F3A4
:1003B000950F50E0551F629FF001729FBB27F00D13
:1003C000B11D639FAA27F00DB11DAA1F649F662768
:1003D000B00DA11D661F829F2227B00DA11D621FB7
:1003E000739FB00DA11D621F839FA00D611D221F71
:1003F000749F3327A00D611D231F849F600D211D55
:10040000822F762F6A2F11249F5750408AF0E1F0F7
:1004100088234AF0EE0FFF1FBB1F661F771F881F40
:1004200091505040A9F79E3F510570F014C05EC036
:100430005F3FECF3983EDCF3869577956795B7952B
:10044000F795E7959F5FC1F7FE2B880F911D969555
:10045000879597F9089597F99F6780E870E060E0C5
:1004600008959FEF80EC089500240A94161617064D
:1004700018060906089500240A9412161306140695
:1004800005060895092E0394000C11F4882352F0F8
:10049000BB0F40F4BF2B11F460FF04C06F5F7F4FB0
:1004A0008F4F9F4F089557FD9058440F551F59F097
:1004B0005F3F71F04795880F97FB991F61F09F3F51
:1004C00079F087950895121613061406551FF2CF7A
:1004D0004695F1DF08C0161617061806991FF1CFCA
:1004E00086957105610508940895E894BB276627F1
:0C04F0007727CB0197F90895F894FFCF0F
:1004FC0049204C4F564520594F550088139A9999CD
:10050C003EFF0000000000000000800000003C3CAA
:10051C0000000040000000666600000020000000A3
:10052C00666600000010000000666600000008000F
:10053C0000007E7E000000040000006666000000E3
:10054C0002000000666600000001000000000000D0
:10055C000000800000007C7C000000400000006671
:10056C00660000002000000066660000001000001D
:10057C00007C7C000000080000006666000000049F
:10058C000000006666000000020000007C7C000099
:10059C0000010000000000000000800000003C3C56
:1005AC000000004000000066660000002000000013
:1005BC006060000000100000006060000000080097
:1005CC00000060600000000400000066660000008F
:1005DC00020000003C3C0000000100000000000094
:1005EC000000800000007C7C0000004000000066E1
:1005FC00660000002000000066660000001000008D
:10060C00006666000000080000006666000000043A
:10061C000000006666000000020000007C7C000008
:10062C0000010000000000000000800000007E7E41
:10063C00000000400000006060000000200000008E
:10064C0060600000001000000078780000000800D6
:10065C00000060600000000400000060600000000A
:10066C00020000007E7E000000010000000000007F
:10067C000000800000007E7E000000400000006052
:10068C00600000002000000060600000001000000E
:10069C000078780000000800000060600000000492
:1006AC0000000060600000000200000060600000BC
:1006BC0000010000000000000000800000003C3C35
:1006CC0000000040000000666600000020000000F2
:1006DC006060000000100000006060000000080076
:1006EC0000006E6E00000004000000666600000052
:1006FC00020000003E3E000000010000000000006F
:10070C0000008000000066660000004000000066EB
:10071C00660000002000000066660000001000006B
:10072C00007E7E00000008000000666600000004E9
:10073C000000006666000000020000006666000013
:10074C0000010000000000000000800000003C3CA4
:10075C0000000040000000181800000020000000FD
:10076C001818000000100000001818000000080005
:10077C000000181800000004000000181800000009
:10078C00020000003C3C00000001000000000000E2
:10079C00000080000000060600000040000000067B
:1007AC0006000000200000000606000000100000FB
:1007BC000006060000000800000006060000000409
:1007CC000000006666000000020000003C3C0000D7
:1007DC0000010000000000000000800000006666C0
:1007EC00000000400000006C6C00000020000000C5
:1007FC007878000000100000007070000000080005
:10080C0000007878000000040000006C6C00000010
:10081C0002000000666600000001000000000000FD
:10082C0000008000000060600000004000000060DC
:10083C00600000002000000060600000001000005C
:10084C000060600000000800000060600000000410
:10085C000000007C7C000000020000007C7C00009A
:10086C000001000000000000000080000000636335
:10087C00000000400000007777000000200000001E
:10088C007F7F000000100000006B6B000000080070
:10089C0000006363000000040000006363000000BC
:1008AC000200000063630000000100000000000073
:1008BC00000080000000464600000040000000667A
:1008CC00660000002000000076760000001000009A
:1008DC00007E7E000000080000006E6E0000000428
:1008EC00000000666600000002000000626200006A
:1008FC0000010000000000000000800000003C3CF3
:10090C0000000040000000666600000020000000AF
:10091C00666600000010000000666600000008001B
:10092C00000066660000000400000066660000001F
:10093C00020000003C3C0000000100000000000030
:10094C000000800000007C7C00000040000000667D
:10095C006600000020000000666600000010000029
:10096C00006666000000080000007C7C00000004AB
:10097C0000000060600000000200000060600000E9
:10098C0000010000000000000000800000003C3C62
:10099C00000000400000006666000000200000001F
:1009AC00666600000010000000666600000008008B
:1009BC00000066660000000400000066660000008F
:1009CC00020000003F3F000000010000000000009A
:1009DC000000800000007C7C0000004000000066ED
:1009EC006600000020000000666600000010000099
:1009FC00007C7C00000008000000787800000004F7
:100A0C000000006C6C000000020000006666000034
:100A1C0000010000000000000000800000003C3CD1
:100A2C00000000400000006666000000200000008E
:100A3C006000000000100000003C3C0000000800BA
:100A4C0000000606000000040000006666000000BE
:100A5C00020000003C3C000000010000000000000F
:100A6C000000800000007E7E000000400000007E40
:100A7C007E0000002000000018180000001000008C
:100A8C0000181800000008000000181800000004EE
:100A9C0000000018180000000200000018180000E8
:100AAC0000010000000000000000800000006666ED
:100ABC0000000040000000666600000020000000FE
:100ACC00666600000010000000666600000008006A
:100ADC00000066660000000400000066660000006E
:100AEC00020000003C3C000000010000000000007F
:100AFC0000008000000066660000004000000066F8
:100B0C006600000020000000666600000010000077
:100B1C000066660000000800000066660000000425
:100B2C000000003C3C00000002000000181800000F
:100B3C000001000000000000000080000000636362
:100B4C000000004000000063630000002000000073
:100B5C0063630000001000000063630000000800E5
:100B6C0000006B6B000000040000003E3E00000023
:100B7C00020000001414000000010000000000003E
:100B8C000000800000006666000000400000006667
:100B9C0066000000200000003C3C0000001000003B
:100BAC00001818000000080000003C3C0000000485
:100BBC00000000666600000002000000666600008F
:100BCC0000010000000000000000800000006666CC
:100BDC0000000040000000666600000020000000DD
:100BEC006666000000100000003C3C00000008009D
:100BFC000000181800000004000000181800000085
:100C0C0002000000181800000001000000000000A5
:100C1C000000800000007E7E0000004000000066A6
:100C2C0066000000200000000C0C0000001000000A
:100C3C00001818000000080000003030000000040C
:100C4C000000006666000000020000007E7E0000CE
:100C5C0000010000000000000000800000001818D7
:100C6C0000000040000000181800000020000000E8
:100C7C0018180000001000000018180000000800F0
:100C8C000000181800000004000000000000000024
:0A0C9C00020000001818000000011B
:00000001FF
