:100000000C942A000C9447000C9447000C94470071
:100010000C9447000C9447000C9447000C94780013
:100020000C9447000C9447000C9447000C94470034
:100030000C9447000C9447000C9447000C94470024
:100040000C9447000C9447000C9447000C94470014
:100050000C94470011241FBECFE5D8E0DEBFCDBF12
:1000600018E0A0E6B0E0EAE6F2E002C005900D92EA
:10007000A434B107D9F728E0A4E4B8E001C01D9288
:10008000AA34B207E1F70E94D4000C9433010C9417
:100090000000CF93DF931F92CDB7DEB7698328B3FB
:1000A00031E0232728BBC198C09B1DC0298128347B
:1000B00011F4C19A19822981269526952695FC016D
:1000C000E20FF11D8081298190E0277002C0959593
:1000D00087952A95E2F780FF02C0C29A01C0C298B4
:1000E00089818F5F898389810F90DF91CF910895F6
:1000F0001F920F920FB60F9211242F933F938F935D
:100100009F93EF93FF9388B391E0892788BBC09BAF
:1001100026C090914508E0914808809149082091B7
:10012000490886958695869539E0E39FF00111246C
:1001300038E4939FE00DF11D1124ED59FF4FE80FB6
:10014000F11D808190E0277002C0959587952A95D2
:10015000E2F780FF02C0C29A1CC0C2981AC0809108
:100160004908883481F4C19A10924908809148085E
:100170008F5F8093480880914808883021F410925E
:10018000480890934608809149088F5F80934908FA
:10019000C198FF91EF919F918F913F912F910F9077
:1001A0000FBE0F901F90189587B38F6087BB89E0B3
:1001B0008EBD89B7806189BF809160009091610098
:1001C0009BBD8ABD88B388BB7894E0914408809138
:1001D0006200E89FF00111242AE130E08091460896
:1001E000882339F0809147088F5F809347081092E9
:1001F00046088091470890E08E179F0779F7809115
:10020000450890E00196B9010E940B0180934508D2
:1002100010924708E3CF97FB072E16F4009407D0FF
:1002200077FD09D00E941F0107FC05D03EF4909590
:1002300081959F4F0895709561957F4F0895AA1BF2
:10024000BB1B51E107C0AA1FBB1FA617B70710F0C1
:10025000A61BB70B881F991F5A95A9F780959095F3
:0A026000BC01CD010895F894FFCF12
:10026A001900010000000000000000800000003CAE
:10027A003C0000004000000066660000002000000C
:10028A0000666600000010000000666600000008B4
:10029A000000007E7E000000040000006666000088
:1002AA000002000000666600000001000000000075
:1002BA00000000800000007C7C000000400000007C
:1002CA00666600000020000000666600000010005C
:1002DA0000007C7C00000008000000666600000048
:1002EA00040000006666000000020000007C7C003A
:1002FA000000010000000000000000800000003C37
:10030A003C0000004000000066660000002000007B
:10031A00006060000000100000006060000000083B
:10032A000000006060000000040000006666000033
:10033A0000020000003C3C00000001000000000038
:10034A00000000800000007C7C00000040000000EB
:10035A0066660000002000000066660000001000CB
:10036A0000006666000000080000006666000000E3
:10037A00040000006666000000020000007C7C00A9
:10038A000000010000000000000000800000007E64
:10039A007E000000400000006060000000200000B5
:1003AA00006060000000100000007878000000087B
:1003BA0000000060600000000400000060600000AF
:1003CA0000020000007E7E00000001000000000024
:1003DA00000000800000007E7E0000004000000057
:1003EA006060000000200000006060000000100053
:1003FA00000078780000000800000060600000003B
:10040A00040000006060000000020000006060005C
:10041A000000010000000000000000800000003C15
:10042A003C0000004000000066660000002000005A
:10043A00006060000000100000006060000000081A
:10044A000000006E6E0000000400000066660000F6
:10045A0000020000003E3E00000001000000000013
:10046A0000000080000000666600000040000000F6
:10047A0066660000002000000066660000001000AA
:10048A0000007E7E00000008000000666600000092
:10049A0004000000666600000002000000666600B4
:1004AA000000010000000000000000800000003C85
:1004BA003C00000040000000181800000020000066
:1004CA0000181800000010000000181800000008AA
:1004DA0000000018180000000400000018180000AE
:1004EA0000020000003C3C00000001000000000087
:1004FA000000008000000006060000004000000026
:10050A000606000000200000000606000000100099
:10051A0000000606000000080000000606000000B1
:10052A00040000006666000000020000003C3C0077
:10053A0000000100000000000000008000000066CA
:10054A0066000000400000006C6C00000020000003
:10055A0000787800000010000000707000000008A9
:10056A000000007878000000040000006C6C0000B5
:10057A0000020000006666000000010000000000A2
:10058A0000000080000000606000000040000000E1
:10059A0060600000002000000060600000001000A1
:1005AA0000006060000000080000006060000000B9
:1005BA00040000007C7C000000020000007C7C003B
:1005CA00000001000000000000000080000000633D
:1005DA006300000040000000777700000020000060
:1005EA00007F7F000000100000006B6B0000000815
:1005FA000000006363000000040000006363000061
:10060A000002000000636300000001000000000017
:10061A000000008000000046460000004000000084
:10062A0066660000002000000076760000001000D8
:10063A0000007E7E000000080000006E6E000000D0
:10064A00040000006666000000020000006262000A
:10065A000000010000000000000000800000003CD3
:10066A003C00000040000000666600000020000018
:10067A0000666600000010000000666600000008C0
:10068A0000000066660000000400000066660000C4
:10069A0000020000003C3C000000010000000000D5
:1006AA00000000800000007C7C0000004000000088
:1006BA006666000000200000006666000000100068
:1006CA0000006666000000080000007C7C00000054
:1006DA00040000006060000000020000006060008A
:1006EA000000010000000000000000800000003C43
:1006FA003C00000040000000666600000020000088
:10070A00006666000000100000006666000000082F
:10071A000000006666000000040000006666000033
:10072A0000020000003F3F0000000100000000003E
:10073A00000000800000007C7C00000040000000F7
:10074A0066660000002000000066660000001000D7
:10075A0000007C7C0000000800000078780000009F
:10076A00040000006C6C00000002000000666600D5
:10077A000000010000000000000000800000003CB2
:10078A003C000000400000006666000000200000F7
:10079A00006000000000100000003C3C000000085F
:1007AA000000000606000000040000006666000063
:1007BA0000020000003C3C000000010000000000B4
:1007CA00000000800000007E7E0000004000000063
:1007DA007E7E0000002000000018180000001000B3
:1007EA000000181800000008000000181800000097
:1007FA000400000018180000000200000018180089
:10080A0000000100000000000000008000000066F7
:10081A00660000004000000066660000002000003C
:10082A00006666000000100000006666000000080E
:10083A000000006666000000040000006666000012
:10084A0000020000003C3C00000001000000000023
:10085A000000008000000066660000004000000002
:10086A0066660000002000000066660000001000B6
:10087A0000006666000000080000006666000000CE
:10088A00040000003C3C00000002000000181800B0
:10089A00000001000000000000000080000000636A
:1008AA0063000000400000006363000000200000B5
:1008BA00006363000000100000006363000000088A
:1008CA000000006B6B000000040000003E3E0000C8
:1008DA0000020000001414000000010000000000E3
:1008EA000000008000000066660000004000000072
:1008FA006666000000200000003C3C00000010007A
:10090A0000001818000000080000003C3C0000002D
:10091A00040000006666000000020000006666002F
:10092A0000000100000000000000008000000066D6
:10093A00660000004000000066660000002000001B
:10094A00006666000000100000003C3C0000000841
:10095A000000001818000000040000001818000029
:10096A00000200000018180000000100000000004A
:10097A00000000800000007E7E00000040000000B1
:10098A006666000000200000000C0C000000100049
:10099A0000001818000000080000003030000000B5
:1009AA00040000006666000000020000007E7E006F
:1009BA000000010000000000000000800000001894
:1009CA001800000040000000181800000020000075
:1009DA000018180000001000000018180000000895
:1009EA0000000018180000000400000000000000C9
:1009FA0000020000001818000000010000000000BA
:100A0A00000000800000003C3C00000040000000A4
:100A1A0066660000002000000006060000001000C4
:100A2A0000001C1C0000000800000018180000004C
:100A3A000400000000000000000200000018180076
:040A4A0000000100A7
:00000001FF
