:100000000C942A000C9434000C9434000C943400AA
:100010000C9434000C9434000C9434000C9436008E
:100020000C9434000C9434000C9434000C94340080
:100030000C9434000C9434000C9434000C94340070
:100040000C9434000C9434000C9434000C94340060
:100050000C94340011241FBECFE5D8E0DEBFCDBF25
:100060000E9448000C9454000C9400001F920F92C0
:100070000FB60F9211248F939F9388B391E0892735
:1000800088BB9F918F910F900FBE0F901F90189576
:10009000B89A89E08EBD89B7806189BF88E893E10D
:0C00A0009BBD8ABD7894FFCFF894FFCF81
:00000001FF
