:100000000C942A000C9447000C9447000C94470071
:100010000C9447000C9447000C9447000C94670024
:100020000C9447000C9447000C9447000C94470034
:100030000C9447000C9447000C9447000C94470024
:100040000C9447000C9447000C9447000C94470014
:100050000C94470011241FBECFE5D8E0DEBFCDBF12
:1000600010E0A0E6B0E0ECE4F1E002C005900D92F3
:10007000A23FB107D9F720E0A2EFB0E001C01D9286
:10008000A43FB207E1F70E9495000C94A4000C94E1
:10009000000028B331E0232728BBC198C09B14C0BF
:1000A0006834710519F4C19A60E070E0FB01EE0F4D
:1000B000FF1FE80FF91F80819181892B11F0C29AEF
:1000C00001C0C2986F5F7F4FCB01089508951F92C2
:1000D0000F920FB60F9211242F933F934F935F937C
:1000E0006F937F938F939F93AF93BF93EF93FF9300
:1000F0006091F2007091F30082E690E00E94490066
:100100009093F3008093F200FF91EF91BF91AF9134
:100110009F918F917F916F915F914F913F912F911F
:100120000F900FBE0F901F90189587B38F6087BBFD
:1001300089E08EBD89B7806189BF84E790E49BBD6B
:0C0140008ABDC3987894FFCFF894FFCFDD
:10014C00900001000100010001000100010001000C
:10015C00010001000100010001000100010001008B
:10016C00010001000100010001000100010001007B
:10017C00010001000100010001000100010001006B
:10018C00010001000100010001000100010001005B
:10019C00010001000100010001000100010001004B
:1001AC00010001000100010001000100010001003B
:1001BC00010001000100010001000100010001002B
:1001CC00010001000100010001000100000000001D
:0201DC00000021
:00000001FF
