:100000000C942A000C9447000C9447000C94470071
:100010000C9447000C9447000C9447000C94780013
:100020000C9447000C9447000C9447000C94470034
:100030000C9447000C9447000C9447000C94470024
:100040000C9447000C9447000C9447000C94470014
:100050000C94470011241FBECFE5D8E0DEBFCDBF12
:1000600018E0A0E6B0E0E4E9F1E002C005900D92EE
:10007000A034B107D9F728E0A0E4B8E001C01D9290
:10008000A234B207E1F70E94A8000C94C8000C94B7
:100090000000CF93DF931F92CDB7DEB7698328B3FB
:1000A00031E0232728BBC198C09B1DC0298128347B
:1000B00011F4C19A19822981269526952695FC016D
:1000C000E20FF11D8081298190E0277002C0959593
:1000D00087952A95E2F780FF02C0C29A01C0C298B4
:1000E00089818F5F898389810F90DF91CF910895F6
:1000F0001F920F920FB60F9211242F933F934F939D
:100100005F936F937F938F939F93AF93BF93EF937F
:10011000FF93609141088091400829E0829FC001CF
:1001200011248055984F0E94490080934108FF9107
:10013000EF91BF91AF919F918F917F916F915F915F
:100140004F913F912F910F900FBE0F901F901895D8
:1001500087B38F6087BB89E08EBD89B7806189BF17
:1001600086E990E09BBD8ABDC3987894C09BFECF82
:10017000809141088834D1F7809140088F5F809347
:10018000400880914008883089F710924008EECFEF
:04019000F894FFCF11
:100194000000000000000000800000003C3C000063
:1001A4000040000000666600000020000000060613
:1001B400000000100000001C1C00000008000000EB
:1001C40018180000000400000000000000000200F5
:1001D40000001818000000010000000000000000EA
:1001E40080000000181800000040000000181800EB
:1001F4000000200000001818000000100000001883
:100204001800000008000000181800000004000096
:1002140000000000000002000000181800000001A7
:100224000000000000000000800000007E7E00004E
:1002340000400000006666000000200000000C0C76
:100244000000001000000018180000000800000062
:100254003030000000040000006666000000020068
:1002640000007E7E0000000100000000000000008D
:100274008000000066660000004000000066660022
:100284000000200000006666000000100000003C32
:100294003C000000080000001818000000040000E2
:1002A40000181800000002000000181800000001E7
:1002B40000000000000000008000000066660000EE
:1002C40000400000006666000000200000003C3C86
:1002D40000000010000000181800000008000000D2
:1002E4003C3C0000000400000066660000000200C0
:1002F400000066660000000100000000000000002D
:10030400800000006363000000400000006363009D
:100314000000200000006363000000100000006380
:1003240063000000080000006B6B00000004000084
:10033400003E3E0000000200000014140000000112
:10034400000000000000000080000000666600005D
:1003540000400000006666000000200000006666A1
:1003640000000010000000666600000008000000A5
:100374006666000000040000003C3C00000002002F
:100384000000181800000001000000000000000038
:100394008000000066660000004000000066660001
:1003A40000002000000066660000001000000066E7
:1003B40066000000080000006666000000040000FB
:1003C400006666000000020000003C3C00000001E2
:1003D4000000000000000000800000007E7E00009D
:1003E40000400000007E7E0000002000000018187D
:1003F40000000010000000181800000008000000B1
:100404001818000000040000001818000000020082
:1004140000001818000000010000000000000000A7
:10042400800000003C3C00000040000000666600C4
:100434000000200000006000000000100000003CEC
:100444003C00000008000000060600000004000054
:10045400006666000000020000003C3C0000000151
:100464000000000000000000800000007C7C000010
:100474000040000000666600000020000000666680
:10048400000000100000007C7C0000000800000058
:100494007878000000040000006C6C00000002008A
:1004A400000066660000000100000000000000007B
:1004B400800000003C3C0000004000000066660034
:1004C40000002000000066660000001000000066C6
:1004D40066000000080000006666000000040000DA
:1004E400006666000000020000003F3F00000001BB
:1004F4000000000000000000800000007C7C000080
:1005040000400000006666000000200000006666EF
:1005140000000010000000666600000008000000F3
:100524007C7C000000040000006060000000020009
:1005340000006060000000010000000000000000F6
:10054400800000003C3C00000040000000666600A3
:100554000000200000006666000000100000006635
:100564006600000008000000666600000004000049
:10057400006666000000020000003C3C0000000130
:10058400000000000000000080000000464600005B
:10059400004000000066660000002000000076763F
:1005A400000000100000007E7E0000000800000033
:1005B4006E6E000000040000006666000000020089
:1005C4000000626200000001000000000000000062
:1005D40080000000636300000040000000777700A3
:1005E4000000200000007F7F000000100000006B6E
:1005F4006B000000080000006363000000040000BA
:100604000063630000000200000063630000000157
:100614000000000000000000800000006060000096
:1006240000400000006060000000200000006060E6
:1006340000000010000000606000000008000000DE
:100644006060000000040000007C7C0000000200E8
:1006540000007C7C0000000100000000000000009D
:10066400800000006666000000400000006C6C0022
:1006740000002000000078780000001000000070E6
:1006840070000000080000007878000000040000FA
:10069400006C6C00000002000000666600000001AF
:1006A40000000000000000008000000006060000BA
:1006B40000400000000606000000200000000606BE
:1006C4000000001000000006060000000800000002
:1006D4000606000000040000006666000000020038
:1006E40000003C3C0000000100000000000000008D
:1006F400800000003C3C000000400000001818008E
:10070400000020000000181800000010000000186D
:100714001800000008000000181800000004000081
:10072400001818000000020000003C3C000000011A
:100734000000000000000000800000006666000069
:1007440000400000006666000000200000006666AD
:10075400000000100000007E7E0000000800000081
:1007640066660000000400000066660000000200E7
:1007740000006666000000010000000000000000A8
:10078400800000003C3C0000004000000066660061
:100794000000200000006060000000100000006005
:1007A40060000000080000006E6E000000040000FD
:1007B400006666000000020000003E3E00000001EA
:1007C4000000000000000000800000007E7E0000A9
:1007D4000040000000606000000020000000606035
:1007E40000000010000000787800000008000000FD
:1007F400606000000004000000606000000002006F
:100804000000606000000001000000000000000023
:10081400800000007E7E0000004000000060600058
:10082400000020000000606000000010000000785C
:100834007800000008000000606000000004000070
:10084400006060000000020000007E7E00000001E5
:100854000000000000000000800000007C7C00001C
:10086400004000000066660000002000000066668C
:100874000000001000000066660000000800000090
:1008840066660000000400000066660000000200C6
:1008940000007C7C0000000100000000000000005B
:1008A400800000003C3C0000004000000066660040
:1008B40000002000000060600000001000000060E4
:1008C40060000000080000006060000000040000F8
:1008D400006666000000020000003C3C00000001CD
:1008E4000000000000000000800000007C7C00008C
:1008F40000400000006666000000200000006666FC
:10090400000000100000007C7C00000008000000D3
:100914006666000000040000006666000000020035
:1009240000007C7C000000010000000000000000CA
:10093400800000003C3C00000040000000666600AF
:100944000000200000006666000000100000006641
:1009540066000000080000007E7E00000004000025
:1009640000666600000002000000666600000001E8
:00000001FF
